{
  "contractName": "Investment",
  "abi": [
    {
      "inputs": [],
      "stateMutability": "nonpayable",
      "type": "constructor"
    },
    {
      "anonymous": false,
      "inputs": [
        {
          "indexed": false,
          "internalType": "uint256",
          "name": "totalDeposit",
          "type": "uint256"
        },
        {
          "indexed": false,
          "internalType": "uint256",
          "name": "totalBalance",
          "type": "uint256"
        }
      ],
      "name": "BalanceChange",
      "type": "event"
    },
    {
      "inputs": [],
      "name": "getWallet",
      "outputs": [
        {
          "internalType": "uint256",
          "name": "_balanceAmount",
          "type": "uint256"
        },
        {
          "internalType": "uint256",
          "name": "_depositValue",
          "type": "uint256"
        }
      ],
      "stateMutability": "view",
      "type": "function",
      "constant": true
    },
    {
      "inputs": [
        {
          "internalType": "uint256",
          "name": "deposit",
          "type": "uint256"
        }
      ],
      "name": "addDepositAmount",
      "outputs": [],
      "stateMutability": "nonpayable",
      "type": "function"
    },
    {
      "inputs": [
        {
          "internalType": "uint256",
          "name": "withdraw",
          "type": "uint256"
        }
      ],
      "name": "withdrawAmount",
      "outputs": [],
      "stateMutability": "nonpayable",
      "type": "function"
    }
  ],
  "bytecode": "0x608060405234801561001057600080fd5b50600f600281905550600380819055506103f98061002f6000396000f3fe608060405234801561001057600080fd5b50600436106100415760003560e01c80630562b9f7146100465780631329960414610062578063a59c124514610081575b600080fd5b610060600480360381019061005b9190610228565b61009d565b005b61006a610142565b604051610078929190610264565b60405180910390f35b61009b60048036038101906100969190610228565b610156565b005b8060005410156100e2576040517f08c379a00000000000000000000000000000000000000000000000000000000081526004016100d9906102ea565b60405180910390fd5b806000808282546100f39190610339565b9250508190555060006001819055507ff51af9a543295074204c9bb2d36c6f10cb6177e660fb80169592be98b37a4a95600154600054604051610137929190610264565b60405180910390a150565b600080600054915081600154915091509091565b8060016000828254610168919061036d565b92505081905550806000808282546101809190610339565b92505081905550600254600154106101ad576003546000808282546101a5919061036d565b925050819055505b7ff51af9a543295074204c9bb2d36c6f10cb6177e660fb80169592be98b37a4a956001546000546040516101e2929190610264565b60405180910390a150565b600080fd5b6000819050919050565b610205816101f2565b811461021057600080fd5b50565b600081359050610222816101fc565b92915050565b60006020828403121561023e5761023d6101ed565b5b600061024c84828501610213565b91505092915050565b61025e816101f2565b82525050565b60006040820190506102796000830185610255565b6102866020830184610255565b9392505050565b600082825260208201905092915050565b7f496e73756666696369656e742066756e64730000000000000000000000000000600082015250565b60006102d460128361028d565b91506102df8261029e565b602082019050919050565b60006020820190508181036000830152610303816102c7565b9050919050565b7f4e487b7100000000000000000000000000000000000000000000000000000000600052601160045260246000fd5b6000610344826101f2565b915061034f836101f2565b9250828210156103625761036161030a565b5b828203905092915050565b6000610378826101f2565b9150610383836101f2565b9250827fffffffffffffffffffffffffffffffffffffffffffffffffffffffffffffffff038211156103b8576103b761030a565b5b82820190509291505056fea2646970667358221220eb0e37282f86d50c17f5d1aef57c4bb7c04073beec21132e8d3951b00119604464736f6c634300080b0033",
  "immutableReferences": {},
  "source": "// SPDX-License-Identifier: GPL-3.0\n\npragma solidity >=0.7.0 <0.9.0;\n\ncontract Investment {\n    uint256 totalBalance;\n    uint256 totalDeposit;\n    uint256 threshHold;\n    uint256 roi;\n\n    event BalanceChange(uint256 totalDeposit, uint256 totalBalance);\n\n    constructor() {\n        // set the limit deposit to earn benefits\n        threshHold = 15;\n        roi = 3;\n    }\n\n    function getWallet()\n        public\n        view\n        returns (\n            //wallet state\n            uint256 _balanceAmount,\n            uint256 _depositValue\n        )\n    {\n        return (_balanceAmount = totalBalance, _depositValue = totalDeposit);\n    }\n\n    function addDepositAmount(uint256 deposit) public {\n        totalDeposit += deposit; // increase deposit\n        totalBalance -= deposit; // decrease deposit\n\n        if (totalDeposit >= threshHold) {\n            // check if will have return\n            totalBalance += roi;\n        }\n        emit BalanceChange(totalDeposit, totalBalance); // emit event\n    }\n\n    function withdrawAmount(uint256 withdraw) public {\n        require(totalBalance >= withdraw, \"Insufficient funds\");\n\n        //condition met\n        totalBalance -= withdraw; // deduce the withdraw amount from the balance\n        totalDeposit = 0;\n\n        emit BalanceChange(totalDeposit, totalBalance);\n    }\n}\n",
  "sourcePath": "/home/eazzy/Documents/flutter/btm/contracts/Investment.sol",
  "compiler": {
    "name": "solc",
    "version": "0.8.11+commit.d7f03943.Emscripten.clang"
  },
  "schemaVersion": "3.4.5",
  "updatedAt": "2022-03-02T04:52:32.945Z",
  "networkType": "ethereum",
  "devdoc": {
    "kind": "dev",
    "methods": {},
    "version": 1
  },
  "userdoc": {
    "kind": "user",
    "methods": {},
    "version": 1
  }
}